:020000042001D9
:1000000085050120A5050120870501209104012017
:100010009F05012000F002F800F02EF80AA090E8F9
:10002000000C82448344AAF10107DA4501D100F0B3
:1000300023F8AFF2090EBAE80F0013F0010F18BF52
:10004000FB1A43F001031847B8110000C811000063
:100050000023002400250026103A28BF78C1FBD8D1
:10006000520728BF30C148BF0B6070471FB501F071
:10007000BAF81FBD10B510BD00F0ABF81146FFF780
:10008000F5FF01F0A9F800F0C9F803B4FFF7F2FF9B
:1000900003BC00F0E9F853EA020C00F069802DE996
:1000A000F04B4FF00006002B1FBFB3FA83F503FAA5
:1000B00005F424FA05F65E4012BF1643B2FA82F543
:1000C00002FA05F4C5F120051EBF22FA05FC44EA38
:1000D0000C04203556EA044C4FEA144418BF641C43
:1000E0004FF000084FF00009904271EB030C39D338
:1000F000002919BFB1FA81F701FA07F6B0FA80F7C3
:1001000000FA07F6C7F120071EBF20FA07FC46EAEF
:100110000C062037B6FBF4FCA7EB0507103F07F0F1
:100120001F0BCBF120060CFA0BFB2CFA06F644BF92
:10013000B3460026202FA4BF5E464FF0000B5BEABB
:10014000060C08BF4FF0010B19EB0B09ABFB027C4F
:1001500048EB0608C01B06FB02CC0BFB03CC71EB83
:100160000C01C1E70B46024641464846BDE8F08B0C
:1001700013B54FF000004FF00001AFF30080BDE871
:100180001C4070474FF0000200B513469446964657
:10019000203922BFA0E80C50A0E80C50B1F120019A
:1001A000BFF4F7AF090728BFA0E80C5048BF0CC048
:1001B0005DF804EB890028BF40F8042B08BF7047A6
:1001C00048BF20F8022B11F0804F18BF00F8012B18
:1001D0007047754600F02CF8AE4605006946534658
:1001E00020F00700854618B020B500F025F8BDE8DE
:1001F00020404FF000064FF000074FF000084FF08E
:10020000000B21F00701AC46ACE8C009ACE8C0091E
:10021000ACE8C009ACE8C0098D46704710B504468B
:10022000AFF300802046BDE81040FFF72EBF00006E
:10023000004870474012012000B54FF0160085B00D
:10024000694601AA0A60ABBE0198002802BF0548B2
:10025000C01D20F007000399029A049B05B000BD61
:10026000150000000000000001491820ABBEFEE7A9
:100270002600020070470000002229B101291AD08F
:1002800002291BD04FF440720E490B6823F44073CF
:100290000B600B6813430B600A6822F078020A6057
:1002A0000A68022303EBC00002430A60086840F4B6
:1002B0008030086070474FF48072E5E74FF40072B9
:1002C000E2E70000103C02401348016889050FD5A1
:1002D000016821F400710160016841F4006101606E
:1002E000016821F400610160016841F4007101605E
:1002F000016849050FD5016821F48061016001683A
:1003000041F480510160016821F48051016001686D
:1003100041F4806101607047003C024008490A686E
:1003200022F440720A600A6842F004020A600A6815
:100330004FF4803343EA002002430A607047000014
:10034000103C0240064A136823F44073136013689C
:100350001360136843F001031360017070470000DD
:10036000103C0240094910B50C6824F440740C603C
:100370000C6844F440740C600C6844F001040C6098
:100380000260BFF36F8F436010BD0000103C02405D
:10039000074A136823F440731360136843F48073AF
:1003A0001360136843F0010313600180704700007D
:1003B000103C0240074A136823F44073136013682B
:1003C00043F400731360136843F00103136001608A
:1003D00070470000103C024017490868C2061748E1
:1003E00005D5C26942F01002C26110220A600A6893
:1003F000920605D5C26942F00802C26120220A6055
:100400000A68520605D5C26942F00402C261402260
:100410000A600A68120605D5C26942F00202C2618A
:1004200080220A600A68920705D5C26942F020025C
:10043000C2610220086070470C3C0240201201207B
:1004400070B5114904460020C86100F0A3FA0546C2
:100450000E4E09E0601C07D024B100F09BFA401B4F
:10046000A04201D9032070BD3068C003F2D43068C7
:10047000C00701D001203060306810F0F200F2D0E7
:10048000FFF7AAFF012070BD201201200C3C0240A2
:100490002DE9F04786B000270E4604463D464FF052
:1004A00001084FF002094CF2503A059714E0206819
:1004B000401C0DD02046009700F014F802AA05A9B0
:1004C00082E80103684600F0CDF810B1032505E08D
:1004D000241D5046FFF7B4FFB442E8D306B02846C7
:1004E000BDE8F0871C49884201D2002070471B49B3
:1004F000884201D2012070471949884201D2022066
:1005000070471849884201D2032070471649884233
:1005100001D2042070471549884201D20520704756
:100520001349884201D2062070471249884201D2FD
:10053000072070471049884201D2082070470F49B0
:10054000884201D2092070470D49884201D20A2011
:1005500070470B2070470000004000080080000832
:1005600000C00008000001080000020800000408A4
:10057000000006080000080800000A0800000C0837
:1005800000000E08704730B500252B4603E010C868
:1005900041F823405B1C9342F9D3284630BD0068E4
:1005A000704700002DE9F04F87B04FF00009174663
:1005B0000E460446C846CDF81490B0F1006F04D33F
:1005C000A00702D1B4F1016F03D9022007B0BDE842
:1005D000F08F00F0DBF8DFF888A0DAF8001021F4E3
:1005E0008061CAF80010254604EB87074FF0020B24
:1005F00018E02868401C10D02846CDF80090FFF77E
:1006000071FF02900120CDE9030B05A9684600F0B7
:1006100029F818B14FF0030806E02D1D4CF25030B8
:10062000FFF70EFFBD42E4D34CF25030FFF708FF56
:1006300048B10AE0002321460220326800F068F841
:1006400018B9241D361DBC42F4D3DAF8001041F469
:100650008061CAF8001000F051F84046B6E700008B
:10066000003C02402DE9F047044622480E46017E38
:1006700001290AD00121804601764CF250394846C2
:10068000FFF7DEFE020003D02FE00220BDE8F08776
:100690004FF0FF3030602068174F012801D0A56867
:1006A0001CE0207C6168FFF739FE4846FFF7C8FE72
:1006B0000246386820F00400386014E0217C2846A7
:1006C000FFF7DAFD4846FFF7BBFE0200386820F06E
:1006D0007A00386001D0356005E06D1CD4E9021065
:1006E0000844A842EAD8FFF7EFFD002188F8181067
:1006F0001046CBE720120120103C0240034801685D
:1007000041F000410160002070470000103C0240B1
:100710002DE9F0471B4E05461446307E1F4689469C
:10072000012808D0012030764CF250384046FFF7BF
:1007300087FE18B114E00220BDE8F0879DB1012DBD
:1007400016D0022D19D022463B464846FFF70AFE36
:100750004046FFF775FE0C490A6822F001020A6064
:1007600000213176E8E7E1B24846FFF7EBFDEFE71D
:10077000A1B24846FFF70CFEEAE721464846FFF7DC
:1007800019FEE5E720120120103C02400749002035
:100790000A68002A09DA054A054B0C3A1360054B32
:1007A00013600968002900DA01207047103C0240FC
:1007B00023016745AB89EFCD2DE9F84FDFF89C9118
:1007C0000022A9F1040B03274FF00F0C09F1040AD2
:1007D000ABF1040E01250B6895402B40AB426ED166
:1007E0000C7904F00304012C01D0022C15D1866889
:1007F000540007FA04F826EA0806D1F80C8008FA33
:1008000004F848EA0608C0F808804468AC430D794B
:10081000C5F300159540254345600C79E443A407D2
:1008200008D0C568540007FA04F6B5438E68A640A0
:100830002E43C6600C7904F00304022C11D1D408B5
:1008400000EB8406356A5407E40E0CFA04F825EA36
:100850000805D1F8108008FA04F848EA0508C6F837
:1008600020800568540007FA04F6B5430E7906F0B7
:100870000306A6402E4306604C6814F4403F66D041
:10088000374C256845F480452560246822F003052F
:1008900004F480440094334C05EB0408D8F808585D
:1008A0009407260F0CFA06F4A5432F4CA04201D161
:1008B000002424E02D4CA04202D101241FE046E098
:1008C0002B4CA04201D1022419E02A4CA04201D1B4
:1008D000032414E0284CA04201D104240FE0274C4B
:1008E000A04201D105240AE0254CA04201D10624F2
:1008F00005E0244CA04201D1072400E00824B440C4
:100900002C43C8F80848D9F800404D464E689C432F
:10091000F60200D51C432C60DAF8004055464E68BC
:100920009C43B60200D51C432C60DBF800405D46BA
:100930004E689C43B60300D51C432C60DEF8004093
:1009400075464E689C43F60300D51C432C60521C30
:10095000102AFFF43FAFBDE8F88F0000083C0140CB
:1009600044380240003001400000024000040240D0
:1009700000080240000C0240001002400014024037
:1009800000180240001C02400AB18161704709044E
:10099000FBE700000148806870470000101201204A
:1009A0000B4810B5016841F400710160016841F421
:1009B00080610160016841F480710160032000F0F2
:1009C00061F8002000F006F800F024F8002010BDC7
:1009D000003C024070B50D4D04464FF47A71287802
:1009E000B1FBF0F00A490968B1FBF0F000F0D2FA6F
:1009F00048B9102C07D200222146501E00F022F8E0
:100A000000206C6070BD012070BD0000101201203C
:100A10001C1201200A4808B5016841F480410160B8
:100A2000006800F4804000900548001F016841F014
:100A300080510160006800F08050009008BD000007
:100A400044380240F0B40E4B1B68C3F30223C3F1D9
:100A50000704042C00D904241D1D072D01D20023F6
:100A600000E0DB1E012606FA04F56D1E0D409D40D8
:100A70009E40761E164045EA0601F0BC00F09CBB85
:100A80000CED00E0064A00F0070110684FF6FF0386
:100A9000184040EA012003490843106070470000F5
:100AA0000CED00E00000FA052DE9F0470D460400CA
:100AB00065D0DFF81491D9F80000EFB200F007001C
:100AC000A84207D289F80070D9F8000000F00700AA
:100AD000A84254D120683D4E810712D5400703D566
:100AE000306840F4E05030602078000703D530686B
:100AF00040F4604030603068A16820F0F0000843A6
:100B000030602078C0072DD030496068083901284E
:100B100012D0022813D0032811D0096889070029B0
:100B20002DDA316821F0030101433160FFF732FF14
:100B3000804641F2883A0EE009688903EFE70968C8
:100B40008901ECE7FFF726FFA0EB0801514502D928
:100B50000320BDE8F0873068616800F00C00B0EB5E
:100B6000810FEFD1D9F80010484601F00701A942E2
:100B700007D90770006800F00700A84201D00120E3
:100B8000E7E72078400705D53068E16820F4E050B9
:100B9000084330602078000706D53068216920F4CA
:100BA000604040EAC100306000F018F83168084A3F
:100BB000C1F30311515CC84006490860064800684B
:100BC000FFF708FF0020C4E7003C0240083802405D
:100BD000F01101201C12012014120120154810B53B
:100BE000006810F00C01144813D0431004290FD0F2
:100BF00008290ED10F4C241F216801F03F02216803
:100C0000490207D52068C0F38810A0FB030106E065
:100C1000184610BD2168C1F38811A1FB0001002313
:100C2000FFF739FA2168C1F30141491C4900B0FBC3
:100C3000F1F010BD083802400024F4002DE9F84F0F
:100C4000040075D02078DFF838A3C007AAF10405A6
:100C500048D00AF104000168C1F38101012908D0DC
:100C60000068C0F3810002280AD1DAF800004002CF
:100C700006D52868800335D560680028E1D031E0CA
:100C80006068B0F5803F10D0B0F5A02F286810D074
:100C900020F480302860286820F480202860606874
:100CA000A0B1FFF777FE06460CE0286840F48030DC
:100CB000F4E740F480202860F7E7FFF76BFE801B25
:100CC000642871D828688003F7D50BE0FFF762FE2F
:100CD000064604E0FFF75EFE801B6428F1D8286812
:100CE0008003F7D42078DFF89C9280074FF0000B48
:100CF0003DD5A348001D016811F00C0F08D0006815
:100D0000C0F3810002280AD1DAF80000400206D4BC
:100D10002868800715D5E068012809D111E0E0684E
:100D2000B8B10120C9F80000FFF734FE064605E01F
:100D300022E1FFF72FFE801B0228C2D82868800717
:100D4000F7D52868216920F0F80040EAC100286042
:100D50000DE0C9F800B0FFF71DFE064604E0FFF7FE
:100D600019FE801B02281FD828688007F7D4207836
:100D7000000722D5824F84486169703771B1012123
:100D80000160FFF707FE064604E0FFF703FE801B45
:100D9000022809D838688007F7D50EE0C0F800B0FF
:100DA000FFF7F8FD064605E082E0FFF7F3FD801B44
:100DB00002287DD838688007F7D42078400765D5A9
:100DC0006F484FF000083C300068C0000BD46C48FE
:100DD0003C30016841F08051016000684FF001082B
:100DE00000F080500090694F3868C0050FD4386813
:100DF00040F480703860FFF7CDFD064604E0FFF751
:100E0000C9FD801B022853D83868C005F7D55C4F50
:100E1000A0686C3701280FD00528386810D020F062
:100E200001003860386820F004003860A068B0B174
:100E3000FFF7B0FD06460EE0386840F00100F4E729
:100E400040F004003860F7E7FFF7A4FD811B41F292
:100E50008830814263D838688007F5D50DE0FFF708
:100E600099FD064606E0FFF795FD811B41F28830AB
:100E7000814254D838688007F5D4B8F1000F05D006
:100E80003F483C30016821F080510160A069B8B34F
:100E90003B49091D0968C1F38101022946D0022896
:100EA000584606D0C9F86000FFF774FD044639E0E3
:100EB00035E04F46C9F86000FFF76CFD064604E0D8
:100EC000FFF768FD801B022829D828688001F7D425
:100ED000D4E907010843A16A2D4A490802EB014100
:100EE000626A41EA8211084394F82C1040EA0161D9
:100EF000CAF8001001203866FFF74CFD044605E0F3
:100F00003CE0FFF747FD001B022808D82868800155
:100F1000F7D533E0FFF73EFD001B022802D903207E
:100F2000BDE8F88F28688001F4D427E00128F7D0C5
:100F3000DAF80000E26900F4800191421CD1226AD3
:100F400000F03F01914217D147F6C071626A01403B
:100F5000B1EB821F10D1A26A4FF0FF3300F4403191
:100F600003EB5202B1EB024F06D194F82C1000F0C3
:100F70007060B0EB016F01D00120D1E70020CFE716
:100F80000438024000004742800E47420070004093
:100F90000000FFFF10B5401EB0F1807F01D301209B
:100FA00010BD4FF0E02460610F21601700F004F9DC
:100FB0000020A06107202061002010BD2DE9F04134
:100FC00086B014216846FFF7DDF84D48002401681B
:100FD00041F010010160016801F010010591016804
:100FE00041F004010160016801F00401059101680C
:100FF00041F020010160016801F0200105910168C4
:1010000041F080010160016801F0800105910168F3
:1010100041F001010160016801F0010105910168E1
:1010200041F002010160016801F0020105910168CF
:1010300041F040010160016801F040010591016843
:1010400041F0080101600068DFF8B88000F0080096
:101050004FF4C0660590002231464046FFF794FCED
:101060004FF6E7700325CDE90005274F6946029446
:101070003846FFF7A1FB1820CDE900046946384641
:101080000294FFF799FB43F6FF70CDE9000569462E
:1010900002941E48FFF790FB4FF6FF10CDE90005C4
:1010A000694602944046FFF787FB01200096CDE990
:1010B0000104694640460394FFF77EFB4FF6FF7636
:1010C0000096CDE9015469461148FFF775FB00967B
:1010D000CDE9015469460F48FFF76EFB0096CDE954
:1010E000015469460C48FFF767FB0096CDE90154AF
:1010F00069460A48FFF760FB06B0BDE8F0810000D2
:101100003038024000140240001002400008024043
:10111000000002400004024000180240000C02409F
:1011200030B593B030216846FFF72CF814210CA895
:10113000FFF728F81E480025016841F08051016042
:10114000006800F0805011901A48016841F4804115
:1011500001600068022400F480401190012000909A
:10116000000401908001CDE90640082008904FF46A
:10117000A870CDE9090404200B906846FFF75EFDD6
:1011800008B172B6FEE70CA90F2081E831004FF4D8
:10119000A0500F904FF48050109005210CA8FFF73D
:1011A00083FC002801D072B6FEE713B030BD00000A
:1011B00040380240007000400907090E002804DB97
:1011C00000F1E02080F80014704700F00F0000F1FB
:1011D000E02080F8141D7047FFF7E2FBFFF7A0FF47
:1011E000FFF7ECFEFEE74FF04070E1EE100A7047AB
:1011F00000000000000000000102030406070809C7
:101200002012012020120120800000005000012047
:101210000100000010000000000000000024F400A5
:0400000520010015C1
:00000001FF
